:100000000C94AE050C94E6050C94E6050C947F2A3E
:100010000C94E6050C94E6050C94E6050C94E605B4
:100020000C94E6050C94E6050C94B8190C9474191C
:100030000C94AF230C94E6050C94E6050C94E605AD
:100040000C94E6050C94E6050C94E6050C94E60584
:100050000C94E6050C94901A0C94E6050C94E605B5
:100060000C94E6050C94E6050C94E6050C94E60564
:100070000C94E6050C94E6050C94E6050C94E60554
:100080000C94E6050C94E6050C94E6050C94E60544
:100090000C94E6050C94E6050C94E6050C94E60534
:1000A0000C94E6050C94E6050C94E6052900140072
:1000B0001A000800150017002B4204001600070064
:1000C00009000A00E1001D001B00060019000500E0
:1000D000E0003100E300E2002C412C410000260248
:1000E0002F002F022C4135022A00130012000C00B1
:1000F00018001C00340033000F000E000D000B0030
:100100001E7C380037003600100011002E002D0034
:10011000E700E6002C412C410000270230003002AD
:100120002C41320029001E001F0020002100220067
:1001300000001E021F02200221022202E100320002
:100140003502000000000000E0003100E300E200A2
:10015000000000000000237825782778297821788E
:100160004C0027002600250024002300350027022C
:10017000260225022402230200003100370000007D
:100180000000000000000000E700E60000000000A2
:1001900000002478267828782A7820782900BC0066
:1001A000AE00BB00000000002B000000AA00A90068
:1001B000A8000000E10000000000000000000000B6
:1001C000E0003100E300E2002C002C000000000001
:1001D0000000000000004B00000000000000520082
:1001E00000000000000000004F00510050004A00D5
:1001F000E50000000000000000004D0000000000CD
:10020000E700E6002C002C000000000000000000C9
:1002100000004E0000DA0281FFD9F1DB20A4A62EF7
:10022000AF00A0C0D30000A1C8D30000AED580A805
:100230001F408D142000556E6B6E6F776E00416409
:100240006A757374005261697365004C6F776572EB
:100250000044656661756C74004C617965723A2082
:10026000003A002C206B0078000000000000FEFF28
:10027000FFFFFFFFFFFFFFFFFFFFFFFFFFFFFFFF8E
:10028000FFFFFFFFFFFFFFFFFFFFFFFFFFFFFFFF7E
:10029000FFFFFFFFFF0F0F0F0F0FFFFFFFFFFFFF1E
:1002A000FFFFFFFFFFFFFFFFFFFFFE00000000005A
:1002B000000000000000000000000000000000003E
:1002C000000000000000000000000000000000002E
:1002D000000000000000000000000000000000001E
:1002E0000000000000000000000000000000FFFF10
:1002F000FFFF8383838383FFFF83838383FFFF83E6
:1003000083838383FFFF83838383FFFF83838383CD
:1003100083FFFFFFFF8282828282FFFF83838383CA
:10032000FFFF8383838383FFFFFFFF000000000044
:100330000000000000F8FCFCFC9C9CFCFCF8F87041
:10034000000000000030787C3C9CFCFCF8F00000D1
:10035000000000C0F0F8F83C3C9CBCFCB8B8A00021
:100360000000000000000000000000000000FFFF8F
:10037000FFFF4141414141FFFFFFFFFFFFFFFF4101
:1003800041414141FFFFFFFFFFFFFFFF414141416D
:1003900041FFFFFFFF4141414141FFFF7F7F7F7FE1
:1003A000FFFF4141414141FFFFFFFF00000000000E
:1003B00000000000003F3F3F3F03070F3F3F3E3834
:1003C0002000000000383C3E3F3F3F3B39380000F2
:1003D000000000070F1F3F3C383B3B3F1F1F0F0033
:1003E00000000000000000000000000000007FFF8F
:1003F000FFFFF0F0F0F0F0FFFFFFFFFFFFFFFFF067
:10040000F0F0F0F0FFFFFFFFFFFFFFFFF0F0F0F074
:10041000F0FFFFFFFFF0F0F0F0F0FFFFF0F0F0F082
:10042000FFFFF0F0F0F0F0FFFFFF7F0000000000A2
:1004300000000000000000000000000000000000BC
:1004400000000000000000000000000000000000AC
:10045000000000000000000000000000000000009C
:100460000000000000000000000001010101010186
:10047000010101020202020202020202030303035B
:10048000030303030404040404040405050505052B
:1004900006060606060707070707080808080909E9
:1004A00009090A0A0A0B0B0B0C0C0C0D0D0D0E0E94
:1004B0000E0F0F0F10101111111212131314141527
:1004C0001516161717181819191A1A1B1B1C1D1D9B
:1004D0001E1E1F20202122222324242526262728F1
:1004E00029292A2B2C2D2D2E2F3031323233343521
:1004F000363738393A3B3C3D3E3F40414243444524
:10050000464748494A4C4D4E4F5051535455565802
:10051000595A5B5D5E5F616264656668696B6C6DAC
:100520006F7072737577787A7B7D7E808283858722
:10053000888A8C8E8F91939596989A9C9EA0A2A360
:10054000A5A7A9ABADAFB1B3B5B7BABCBEC0C2C465
:10055000C6C9CBCDCFD1D4D6D8DBDDDFE2E4E7E925
:10056000EBEEF0F3F5F8FAFDFF00AF00AE05010980
:1005700006A101050719E029E71500250195087571
:100580000181029501750881010507190029FF15F0
:100590000026FF0095067508810005081901290548
:1005A000950575019102950175039101C00902221B
:1005B00000010100A0FA0904000001030101000983
:1005C00021110100012240000705810308000112EA
:1005D00001000200000008D8042EEB000101020017
:1005E0000116034C0069006C0079003500380020CA
:1005F0000052003200470000001C034D00650063FC
:1006000000680062006F00610072006400730020E7
:100610000055004B00000004030904000000000026
:10062000003E5B4F5B3E003E6B4F6B3E001C3E7CD2
:100630003E1C00183C7E3C18001C577D571C001CBB
:100640005E7F5E1C0000183C180000FFE7C3E7FF58
:1006500000001824180000FFE7DBE7FF0030483AED
:10066000060E00262979292600407F05050700404F
:100670007F05253F005A3CE73C5A007F3E1C1C0882
:1006800000081C1C3E7F0014227F2214005F5F00C4
:100690005F5F0006097F017F00006689956A006040
:1006A000606060600094A2FFA2940008047E0408C9
:1006B0000010207E20100008082A1C0800081C2AB0
:1006C0000808001E10101010000C1E0C1E0C00302C
:1006D000383E383000060E3E0E06000000000000D6
:1006E0000000005F000000000700070000147F14F6
:1006F0007F1400242A7F2A12002313086462003624
:100700004956205000000807030000001C22410049
:10071000000041221C00002A1C7F1C2A0008083E01
:100720000808000080703000000808080808000071
:1007300000606000002010080402003E5149453E60
:100740000000427F4000007249494946002141496A
:100750004D33001814127F10002745454539003CE1
:100760004A494931004121110907003649494936B2
:1007700000464949291E00000014000000004034D2
:100780000000000008142241001414141414000086
:1007900041221408000201590906003E415D594EEC
:1007A000007C1211127C007F49494936003E4141CC
:1007B0004122007F4141413E007F49494941007F3C
:1007C00009090901003E41415173007F0808087F73
:1007D0000000417F4100002040413F01007F08149C
:1007E0002241007F40404040007F021C027F007F8A
:1007F0000408107F003E4141413E007F090909067F
:10080000003E4151215E007F0919294600264949D1
:1008100049320003017F0103003F4040403F001F79
:100820002040201F003F4038403F006314081463FD
:10083000000304780403006159494D4300007F41DF
:10084000414100020408102000004141417F0004A2
:10085000020102040040404040400000030708003D
:10086000002054547840007F2844443800384444E1
:10087000442800384444287F003854545418000059
:10088000087E0902001824241C78007F08040478DC
:100890000000447D4000002040403D00007F1028C3
:1008A00044000000417F4000007C04780478007C14
:1008B00008040478003844444438007C1824241880
:1008C00000182424187C007C0804040800485454B0
:1008D00054240004043F4424003C4040207C001C7D
:1008E0002040201C003C4030403C0044281028445C
:1008F000004C9090907C004464544C4400000836B6
:1009000041000000007700000000413608000002AE
:1009100001020402003C2623263C000000000000E7
:1009200080808080000000000080E070180C18308B
:10093000E080000010F8901030783010B8FC3810CB
:10094000000000000000F8FCF800000000000000BB
:100950000000000000001C9C1C00000000F8FCF8D7
:100960000000000000001CFCF8C0000000000000B7
:1009700080E0F87C1C000000F0FCFCFC1C1C1C1C33
:100980001C1C1C1C000000000000C0F0F8381C1CDF
:100990001C1C1C1C3CF8F0E000E0F0F0F0E0ECEE79
:1009A000F7F37020007C7C7C7E007E7E7E7F7F7FE4
:1009B000000080C0E07E5B4F5BFEC00000C000DC3A
:1009C000D7DEDEDED7DC00C0000000000000000043
:1009D0000000000000000000000000000000000017
:1009E0000FBCE0818181838382870C183060C00056
:1009F000001FFE90B9FFBB91983C1811133F1100E6
:100A0000000000000000FFFFFF00000000000000E9
:100A1000000000000000FFFFFF00000000FFFFFFDC
:100A20000000000000000000030F7FF8E080F0FCF1
:100A30003F0F0100000000003F3F3F1C1C1C1C1C1E
:100A40003C78F8F0E08000000000C3E7FF7E3C380F
:100A500078787070F8FFDF87000F1F3F7F7F7F7F00
:100A60007F3F1E0C001F1F1F3F003F3F3F7F7F7FC8
:100A700000307B7F7830202030787F3B0003000FF0
:100A80007F0F0F0F7F0F0003000000000000000029
:100A90000000000000000000000000183C24666315
:100AA00041C18180808080808081C14162386C4CEE
:100AB000C68181808080808081C14362361C18009D
:100AC000000000000000FFFFFFC0C0C0C0C0C0C0E9
:100AD000C0C0800000007FFF7F000000007FFFFF9C
:100AE000C080000000E0E0C0C0C0E0F97F1F070048
:100AF000000000000000000070F0E0E0C0C0C0C0D6
:100B0000E0F0F87F3F0F0000000F3F7FF9E0E0C00A
:100B1000C0C0C0C0E0F97F3F1F000000000000001F
:100B200000000000000000000000000000000000C5
:100B300000000000000000000000000000000000B5
:100B400000000000000000000000000000000000A5
:100B500000000000000000000000000011241FBE83
:100B6000CFEFDAE0DEBFCDBF04B603FE18C0809140
:100B7000420790914307A0914407B0914507873001
:100B8000904BA740B04B59F4109242071092430784
:100B90001092440710924507E0E0F8E3099512E04F
:100BA000A0E0B1E0E6E1FAE502C005900D92AA3BB3
:100BB000B107D9F727E0AAEBB2E001C01D92A23439
:100BC000B207E1F70E94D6230C94AA2C0C940000E3
:100BD0008F929F92AF92BF92CF92DF92EF92FF924D
:100BE00090914201981305C090913605903209F416
:100BF0004BC08093420190E290933605C82ED12CD1
:100C0000F12CE12C10923505C701B6012AE030E045
:100C100040E050E00E94F22B605D603331F0C1147F
:100C2000D104E104F10409F460E26093340560E268
:100C30008AE0C816D104E104F10490F08AE0882E1D
:100C4000912CA12CB12CC701B601A50194010E94E1
:100C5000F22BCA01B901A50194010E94F22B605D3B
:100C60006093330520E284E6C816D104E104F10460
:100C700048F0C701B60124E630E040E050E00E94B1
:100C8000F22B205D2093320582E395E0FF90EF90F8
:100C9000DF90CF90BF90AF909F908F9008959091EC
:100CA0002A05937061F081110BC0946090932A051E
:100CB0001092410180912905816080932905089552
:100CC0008B3010F09862F2CF880F880F982BEECF00
:100CD000482F2091F8049091BF0457E0291302C0D7
:100CE00080E0089530E0529FF001539FF00D1124F1
:100CF000E054FB4F8181681306C08081481303C014
:100D000085818111EECF2F5F3F4F2770E7CFFC0128
:100D1000AC014B5F5F4F8FEF91E32191822728E079
:100D200030E087FF09C0880F892721503109C9F7B2
:100D3000E417F50791F70895880FF7CF982F909350
:100D4000E900891779F05091EC002091ED00409175
:100D5000F00021FD0AC09F5F973089F78093E9007A
:100D600081E00895562F40E022E03091EB003E7F75
:100D70003093EB003091ED003D7F3093ED003091EA
:100D8000EB0031603093EB005093EC002093ED00CA
:100D90004093F0002091EE0027FDDDCF80E0089524
:100DA00090912A05937071F080932B0560932C0528
:100DB000493708F048E740932D0580912905816067
:100DC000809329050895E8EDF0E080818E7F80838F
:100DD0001092E2001092DA001092E100A0EEB0E072
:100DE0008C9181608C9380818F77808319BCA7ED73
:100DF000B0E08C918E7F8C9380818F7E8083109267
:100E0000A8040895B0E0A0E0E8E0F7E00C94B92B66
:100E1000C8EDD0E088818F7E8883E7EDF0E08081A7
:100E20008160808384E082BF81E08093A804888110
:100E30008E7F888302EE10E0F80110821092DA00B3
:100E400081EEC82ED12CF601108288818F7788839D
:100E500088818068888388818F7D888319BC1092FF
:100E6000BE041092B5041092B4041092B30490EE34
:100E7000E92EF12CF70180818B7F8083888181604E
:100E8000888360E080E00E949E06F60180818E7F6C
:100E90008083F80180818160808380818860808385
:100EA000F70180818E7F8083888180618883CDB7C0
:100EB000DEB7E8E00C94D52B2091E4003091E500FA
:100EC00095E6A9012091EC00822F817020FF06C0D9
:100ED0008091E80080FF06C080E008952091E8003E
:100EE00022FD1AC08091BE04882389F0853089F0E4
:100EF0008091EB0085FD0FC02091E4003091E5006A
:100F000042175307F9F29150E1F684E0089582E028
:100F1000089583E0089581E008958091B60487FFE5
:100F200013C08091E80082FF06C08091E8008B77B3
:100F30008093E80004C08091BE048111F2CF08952F
:100F40008091BE048823D9F38091E80080FFF8CF18
:100F50008091E8008E77ECCFFC018091BC049091E9
:100F6000BD0486179707A0F06115710529F49091CB
:100F7000E8009E779093E80090E06115710551F4C8
:100F8000911108C08091E80082FF34C080E008958C
:100F9000BC01F2CF8091BE048823C1F18530C1F13C
:100FA0008091E80083FD30C08091E80082FDEACFA7
:100FB0008091E80080FFE1CF8091F3002091F20062
:100FC000382F6115710519F02830310558F091E07E
:100FD0002830310509F090E02091E8002E77209329
:100FE000E800CBCF81918093F100615071092F5FB0
:100FF0003F4FE7CF8091BE04882341F0853041F018
:101000008091E80083FFBECF81E0089582E00895DB
:1010100083E00895089508958091AA0408952FB754
:10102000F8946091A4047091A5048091A604909115
:10103000A7042FBF08959C01FC0132969FEF80E02A
:101040004191461751F09F3F19F4411101C0982F6B
:101050008F5F8630A9F79F3F09F40895290F311D4E
:1010600097FD3A95F90162830895FA01811101C053
:10107000FB0109950895EAE2F5E0248130E1231BA4
:1010800008F420E02483809129058160809329055C
:101090000895EAE2F5E0248130E1230F08F42FEF10
:1010A0002483809129058160809329050895EAE2CF
:1010B000F5E0438120E1421B08F440E08181628138
:1010C00090E00E94D0060895EAE2F5E0438120E135
:1010D000420F08F44FEF8181628190E00E94D006B8
:1010E0000895EAE2F5E0628120E1621B08F460E025
:1010F0008181438190E00E94D0060895EAE2F5E004
:10110000628120E1620F08F46FEF8181438190E0FA
:101110000E94D0060895EAE2F5E081814381628170
:101120008850990B0E94D0060895EAE2F5E081818B
:1011300090E04381628108960E94D00608958091D4
:101140002A0586958695815009F48AE00E944F060B
:10115000089580912A05869586958F5F8B3008F0DB
:1011600081E00E944F06089580933C0180912A05FA
:10117000837080933B010E94021283E080934101BF
:10118000089522E8241B08F420E0620F089540959A
:10119000282F429F412D1124842F0895E42FF0E041
:1011A000EE0FFF1FE552FE4F9081921B97FD919528
:1011B000292F38E1239F212D1124620F0895322F0A
:1011C00050E0FA01EE0FFF1FE156FE4F95AD905231
:1011D00097FD9195440F551FFA01E552FE4F20816E
:1011E000231B330B290F311D97FD3A95620F08958C
:1011F0000E9490120895FF920F931F93CF93DF9355
:10120000182F062FF42ED0E0C0E02F2D402F612F95
:10121000CE010E94F8082196CA34D105B1F7CDB7A6
:10122000DEB7E5E00C94D82B0F931F93522F10E0FC
:10123000F801EE0FFF1FE156FE4FA5ADA052BB0B0C
:101240009D015203F001539FF00D1124000F111F57
:10125000D801A552BE4F0C910057110B40039001CD
:10126000419F300D11242E0F3F1F37FF02C0215C1C
:101270003F4F96E0359527959A95E1F7620F1F91BC
:101280000F910895E82F86FDE0952E2F2F7086FD93
:101290002F5FE695E695E695E670F0E0E956FE4F9D
:1012A0009181929F902D212D112492959F702295CE
:1012B000207F922B2081920F87FD919580E8890FE6
:1012C000089530E020E0869F212D969F200D311D4E
:1012D0001124C9010895AF92BF92CF92DF92FF927D
:1012E0000F931F93CF93DF93362F472FE82FF0E014
:1012F000E759FB4F71110FC0E4918E2F2E2F6E2FE7
:10130000722FDF91CF911F910F91FF90DF90CF90BF
:10131000BF90AF900895C72FD0E02491F22E022FF6
:1013200010E056E0659FC0011124EFEFF0E0BF012F
:101330000E949B2B832F90E0880F991F35E5369FE5
:10134000D001379FB00D11248A1B9B0B982F990F4A
:10135000980F6F01CC1ADD0AC09ED001C19EB00D5E
:10136000D09EB00D11248B2F499FA0011124452F31
:1013700055276F01C41AD50AC09EA001C19E500D09
:10138000D09E500D11245F01A91AB108AC9E6001D6
:10139000AD9ED00CBC9ED00C1124CD2CDD24EC19BC
:1013A000FD09E09FE001E19FD00DF09FD00D1124D9
:1013B000ED2F62307105A1F050F46115710509F44B
:1013C0009ECF6130710581F0EB2F852F98CF64306F
:1013D000710569F080F06630710509F490CFF4CFA3
:1013E000E22F2B2F8D2F8BCFE22F252F88CFEB2FA6
:1013F000822F2D2F84CF2B2F8F2DE52F80CF80E0B4
:101400000895F894E82FE295EF70F0E031A1282FCD
:101410002F7081E090E001C0880F2A95EAF7982F9D
:101420009095932391A392A1892B82A378940895F8
:101430009091460392FF06C0282F28712830F9F4B6
:10144000877F846093FF06C0282F28712831F1F42C
:10145000877E84612091470320FF06C0382F3871B2
:101460003830D9F4877F816021FF06C0282F28718A
:101470002831D1F4877E816194FD877E0895282FDD
:1014800024712430F9F68B7F8860DCCF282F2471FB
:10149000243101F78B7E8861DDCF382F31713130F7
:1014A00019F78E7F8860E0CF282F2171213121F735
:1014B0008E7E8861E1CF82389105B9F1B0F4813335
:1014C000910509F47DC048F48932910509F46DC095
:1014D0008A32910509F47BC008958533910509F49A
:1014E0005FC08933910509F10895833E9105D9F1D3
:1014F00038F4803E910529F1823E910579F10895F5
:10150000863E9105D9F1873E910509F43EC0843E9F
:10151000910541F52091470321FF24C080914603A6
:1015200084FD19C087EE90E0089520914603237052
:1015300009F05AC02091470323FF14C089E290E0CC
:1015400008952091460320FD38C03091470330FFB5
:1015500009C024FF43C090E080E008952091460335
:1015600022FDF7CF08952091460322FD3AC0309125
:10157000470330FD39C024FFF5CFEDCF209146035E
:1015800023FFF0CF24FDE7CFCDCF2091460323FDED
:101590002EC03091470331FFEECF84EE90E00895E6
:1015A0002091460325FFDECFC9CF2091460325FDBC
:1015B00021C02091470323FFD5CF89E390E0D2CF0C
:1015C0002091460326FFCECF8AE290E00895209135
:1015D000460326FFC7CF81E390E0089583EE90E0B5
:1015E000089582EE90E0089580EE90E0089586EEF2
:1015F00090E0089585E390E00895972F7A30B8F44D
:101600006630A8F48330B0F470E026E0929F600D5D
:10161000711D1124FB019CE3899FE00DF11D112434
:10162000EE0FFF1FE455FF4F85919491089580E0E0
:1016300090E0089581E0FCCF1F93CF93DF930E9449
:101640005B0AEC01C11582E5D80708F03FC0C1155F
:1016500090E5D90708F0C2C0C83ED105C0F4C03E2D
:10166000D10580F4C53AD10548F4C430D10550F411
:10167000C130D10539F0D0E0C0E004C0CD3CD10587
:10168000D0F3D065CE01DF91CF911F910895C115A0
:1016900080E4D80708F053C0C11590E2D90708F0DC
:1016A000B7C0C11581E0D80730F38D2F0E94180A0A
:1016B000182FCE0199270E945B0AC12FD0E0DC2FA2
:1016C000CC27CC27DF71C82BD92BDCCFC03892E5D3
:1016D000D907A8F4C03682E5D80708F063C0C03443
:1016E00092E5D90708F049C0C03282E5D80788F1F1
:1016F000CF71D0E0DC2FCC27C16FD06AC3CFC03C04
:1017000092E5D90780F48C2F8F71C03AD24508F446
:101710005EC00E94180AC82FD0E0DC2FCC27CC274F
:10172000DF71D062AFCFC03E82E5D80708F0A3CF0B
:10173000DC2FCC27CC27DF71C06FD06AA3CFCE01BE
:1017400099270E945B0ACC27DF70C82BD92BD06A5F
:1017500099CF2C2F2695269590E2299F9001112450
:101760008C2F8370C1E0D0E002C0CC0FDD1F8A95C2
:10177000E2F7C22BD32BDD6885CF2C2F269526953B
:10178000277080E2289F900111248C2F8370C1E084
:10179000D0E002C0CC0FDD1F8A95E2F7C22BD32B1D
:1017A000DC6870CF2C2F26952695277090E2299F14
:1017B000900111248C2F8370C1E0D0E002C0CC0FC7
:1017C000DD1F8A95E2F7C22BD32BDA685BCFC82FD7
:1017D000D0E0DC2FCC27C46FD06A54CF8C2F8F7110
:1017E0000E94180A55E0D695C7955A95E1F7CF7033
:1017F000D0E0DC2FCC27282F30E084FF05C044E068
:10180000220F331F4A95E1F7C22BD32BD0693ACF71
:101810008D2F8F710E94180A182FCE0199270E94D0
:101820005B0AC12FD0E0DC2FCC27CC27DF71C82B7F
:10183000D92B77CF80959091F80298239093F80256
:1018400008958091F8049091BF04981301C0089501
:101850008F5F8770FACFB0E0A0E0E1E3FCE00C948A
:10186000B82B7C0100915D0310915E038091F90219
:101870009091FA02082B192BCFE0D0E0CC24C3942E
:10188000D12CBC2EC6010C2E02C0880F991F0A94C1
:10189000E2F780239123892B49F4219790F7B12C0B
:1018A0008B2DCDB7DEB7E9E00C94D42BB7018C2F8C
:1018B0000E94FD0A0E941C0B019779F3F1CFCF9390
:1018C000DF93EC010E942B0CBE010E94FD0A0E94D6
:1018D0001C0BDF91CF9108959A3078F5863068F52A
:1018E000E82FF0E086E0989FE00DF11D11249E2F77
:1018F000977083E0F695E7958A95E1F7EE0FFF1F65
:10190000EE0FFF1FEA53FD4F50E040E080E02191D1
:1019100030E0092E02C0369527950A94E2F721702F
:101920003327042E01C0220F0A94EAF7822B4F5F5F
:101930005F4F4430510559F7089580E008959A307B
:1019400098F5863088F5E82FF0E086E0989FE00D66
:10195000F11D11248E2F877041E001C0440F8A953C
:10196000EAF783E0F695E7958A95E1F7EE0FFF1F1A
:10197000EE0FFF1FEA53FD4F30E020E070E0519181
:10198000DF011197CB01022E02C0969587950A942C
:10199000E2F7817081958527842385278C932F5FBB
:1019A0003F4F2430310559F7089590935E0380939B
:1019B0005D03089521E030E002C0220F331F8A95B5
:1019C000E2F72095309580915D0390915E0382232C
:1019D00093230E94D50C08959091ED028095892360
:1019E0008093ED02282F277069F4891759F09091A0
:1019F000470392FF07C08695869586950E94DA0C6C
:101A00001092ED02089521E030E002C0220F331F52
:101A10008A95E2F780915D0390915E03822B932B70
:101A20000E94D50C08959093FA028093F9020895CC
:101A3000FC0124812223C1F0808191810E945F0CEE
:101A400092959F70963091F058F4925F9F7092300B
:101A500058F4803F19F030F4883E30F481E0089566
:101A60009A5FF4CF843FD1F380E00895883EB0F3CD
:101A7000813FD1F7F3CFA6E0B0E0E1E4FDE00C94C4
:101A8000BE2B49835A8349815A819923A1F022238D
:101A900091F0CA010E942B0C182F682F89819A811E
:101AA0000E949F0C69817A81812F0E94FD0A2696EF
:101AB000E3E00C94DA2BCA010E946C0C182FF2CFD1
:101AC000CF93DF93682F81E06A3019F06D3031F4E5
:101AD00080E00E94EE0DDF91CF9108958091400744
:101AE0009091410726E0FC01AAE3B7E001900D9236
:101AF0002A95E1F7603E08F458C026E0FC011192F7
:101B00002A95E9F7C0914007D091410746E050E09F
:101B1000BE018AE397E00E94422C9E012A53354081
:101B2000892B41F1C90145E0969587954A95E1F7E2
:101B300041E050E0BA0102C0660F771F8A95E2F7D4
:101B4000CB016091380570913905862B972BB9012F
:101B50006B5F7F4FE5E076956795EA95E1F702C008
:101B6000440F551F6A95E2F7842B952B9093390506
:101B7000809338052A5F3F4F40913705642F70E00E
:101B8000C9010E949B2B481B463010F4240F311DC5
:101B9000211572E0370710F030E020E0265C3A4F64
:101BA000309341072093400796CFF6E06F9FB00136
:101BB0001124655E794F46E050E00E94392CA2CF97
:101BC000CF93DF93EC01FE018491811103C0DF917B
:101BD000CF9108950E94600D2196F5CFCF93382FB5
:101BE000E0914007F0914107EA53F5402091370515
:101BF000622F70E0CF010E949B2B281B822F332382
:101C000061F066E00E94E62BC82FC15010F4CF911E
:101C1000089580E20E94600DF8CF9F01280F311DCA
:101C20002115324018F080E0F0E0E0E08E0F9F2FA9
:101C3000911D865C9A4F9093410780934007E7CFB0
:101C40000E94E00D81E00E94EE0D08958091F8025F
:101C50009091F702892B8093BC029091F602992310
:101C600091F0892B8093BC0220E08EEB92E0FC0186
:101C70003191CF0131112F5FF2E0843C9F07B9F71A
:101C800021111092F60248E050E06EEE72E08CEB0B
:101C900092E00E94422C892BA9F088E0ECEBF2E064
:101CA000AEEEB2E001900D928A95E1F7E091A104C9
:101CB000F091A204309731F00280F381E02D8CEB9B
:101CC00092E0099508951092F802EEEBF2E086E0BA
:101CD000DF011D928A95E9F71092F7020E94260E05
:101CE0000895AAE2B0E0E7E7FEE00C94BE2B86EB95
:101CF00094E02091F100FC012193CF01F4E08E3BB0
:101D00009F07B9F78091B704833009F470C0B8F425
:101D1000813009F447C0823009F4B1C08091E800F5
:101D200083FF64C28091B6049091B7049A3008F0A2
:101D30005DC2E92FF0E0E455F34D0C94332C8A306A
:101D400009F48CC08B3009F46FC0893039F7809169
:101D5000B604813219F78091BA049091BB04892BA3
:101D6000E9F68091E800877F8093E8008091E800A1
:101D700082FF38C09091F3008091F200029731F415
:101D80008091F100813011F0863021F48091F100D2
:101D90008093AA048091E8008B778093E8000E94EA
:101DA0008D07BCCF8091B604813A09F0B7CF8091FE
:101DB000E800877F8093E8008091BA049091BB048B
:101DC000892B61F468E08BEA94E070E00E94AC0734
:101DD0008091E8008B778093E800A0CF60E090E0EE
:101DE00080E0F3CF8091BE048111C0CF97CF809166
:101DF000B604813A09F092CF8091BA049091BB0465
:101E0000892B09F08BCF8091E800877F8093E800D1
:101E10008091E80080FFFCCF80913D018093F1002C
:101E20008091E8008E77B9CF8091B604813209F0B5
:101E300075CF8091BA049091BB04892B09F06ECFC5
:101E40008091E800877F8093E8000E948D07809151
:101E5000B80480933D010E94630E60CF8091B60468
:101E6000813209F05BCF8091E800877F8093E800A2
:101E70000E948D078091B9048093A9044FCF80916F
:101E8000B604813A09F04ACF8091E800877F8093B9
:101E9000E8008091E80080FFFCCF8091A904BECFCC
:101EA000803899F0823809F0A1C18091BA048F700E
:101EB000873008F09BC18093E9008091EB0085FB9F
:101EC000882780F91092E90006C08091B3049091B0
:101ED000B404911182609091E800977F9093E8009C
:101EE0008093F1001092F1008091E8008E777AC122
:101EF000882309F468C1823009F078C18091B80460
:101F000081116BC18091BA048F702FEF280F26309A
:101F100008F06CC18093E9002091EB0020FF5DC1C7
:101F2000933031F48091EB0080628093EB0055C1D7
:101F30009091EB0090619093EB0021E030E001C0C4
:101F4000220F8A95EAF72093EA001092EA00809126
:101F5000EB008860EACF811149C11091B8041F7766
:101F60008091E3008078812B8093E3008091E800EA
:101F7000877F8093E8000E948D078091E80080FFB2
:101F8000FCCF8091E30080688093E30082E0111130
:101F900083E08093BE042AC18058823008F026C1B5
:101FA0008091B8049091B9048C3D23E09207A1F58B
:101FB00083E08A838AE289834FB7F894DE0113961F
:101FC00020E03EE051E2E32FF0E050935700E4912F
:101FD00020FF03C0E295EF703F5FEF708E2F90E01F
:101FE000EA30C0F0C7968D939D932F5F243159F747
:101FF0004FBF8091E800877F8093E8006AE270E03D
:10200000CE0101960E94AC078091E8008B77809307
:10201000E800ECC0C096E7CF4091BA045091BB04F1
:10202000292F33272330310509F43FC078F52130BB
:10203000310509F466C082E290E0EDEAF5E0223075
:10204000310509F0D3C02091E800277F2093E800F4
:102050002091BC043091BD048217930708F49C01C1
:1020600040E02115310509F051C041114FC0809168
:10207000E80082FDC9CF8091BE04882329F2853013
:1020800019F28091E80083FFF2CFBECF21323105F3
:1020900081F12232310509F0A9C0452B09F0A6C013
:1020A00080E490E0EDE6F5E0CECF99278130910510
:1020B000C1F0009759F0029709F098C0E1EEF5E001
:1020C000E4918E2F90E0E1EEF5E007C0E7E1F6E065
:1020D000E4918E2F90E0E7E1F6E0009709F0B3CFAE
:1020E00085C0E9EFF5E0E4918E2F90E0E9EFF5E0AF
:1020F000F4CF452B09F07AC089E090E0EFEBF5E0F2
:10210000A2CF82E190E0EFECF5E09DCF8091BE049C
:10211000882309F479CF853009F476CF8091E800DF
:1021200083FD72CF8091E80082FDA1CF8091E8000D
:1021300080FF97CF9091F3008091F2002115310537
:1021400019F08830910550F041E0089709F040E01F
:102150008091E8008E778093E80083CF449140938C
:10216000F1003196215031090196E8CF8038F1F520
:102170008091E800877F8093E8008091B504809388
:10218000F100B2CE811132C01091B804123070F556
:102190008091E800877F8093E8001093B5040E9447
:1021A0008D07112311F084E005C08091E30087FDC5
:1021B000FACF81E08093BE0461EC81E00E949E062C
:1021C0008091BE0413C08091B804813079F481E01D
:1021D000933009F080E08093B4041092E90080917C
:1021E000E800877F8093E8000E948D078091E800D7
:1021F00083FF0AC08091E800877F8093E800809188
:10220000EB0080628093EB00AA96E3E00C94DA2B5B
:10221000882321F00E941A0C0E94260E089588231C
:1022200039F09091F802982B9093F8020E94260EB4
:102230000895882391F09CEF980F913A78F4EEEB93
:10224000F2E09191891303C0DF0111971C9292E093
:10225000E43CF907B1F70E94260E089590E2980F2A
:102260009830D8F7877091E001C0990F8A95EAF706
:10227000892F0E941A0CEFCFCF93C82F8823A9F083
:102280008CEF8C0F813A00F5EEEBF2E0DF018D91DF
:10229000C81769F082E0A43CB807C9F76C2F8CEB33
:1022A00092E00E941B080E94260ECF910895819112
:1022B000C81303C0DF0111971C9282E0E43CF807C9
:1022C000B1F70E94260EEACF80E28C0F883068F7C3
:1022D000C77021E030E001C0220FCA95EAF7809173
:1022E000F802822B8093F802DECF0F931F93CF93D7
:1022F000DF93EC01FC0101900020E9F78F01015010
:102300001109C017D10728F0DF91CF911F910F91CC
:10231000089589910E94600DF4CF0F931F93CF937E
:10232000DF938C018091BE04843059F581E0809365
:10233000E9008FEF9091E800815095FD06C095ED82
:102340009A95F1F700008111F5CF8091E80085FFA3
:1023500018C00E945C0781110FC0C8E0D0E08091D6
:10236000E80085FD13C08091E8008E778093E80037
:102370000E945C07882399F38091E8008E77809310
:10238000E800DF91CF911F910F910895F80181919D
:102390008F018093F100219711F7EECFCF93DF9358
:1023A000EC010E948D1188E0FE01ABEAB4E00190DF
:1023B0000D928A95E1F7DF91CF91089581E08093A6
:1023C000E00080E28093D8001092C9008FE19EE483
:1023D0000197F1F700C0000087E090EBDC018093EB
:1023E000420790934307A0934407B093450788E1C1
:1023F0009CE00FB6F894A895809360000FBE909370
:102400006000FFCF539A3BB1377F2BB128604FB7A5
:10241000F8948DEB93E0FC015191CF0168E02BB96A
:10242000000000C057FF3BB9550F000000C000C0BE
:1024300000C03BB900C06A9591F7F4E08B399F0763
:1024400051F74FBF8FE594E00197F1F700C000000E
:102450000895B0E0A0E0EFE2F2E10C94B72B7C012C
:102460005B016A018091350301E010E08A3010F4CD
:102470000AE010E0C1E0D0E0B501C701F60109951E
:10248000811104C021960C171D072CF4CDB7DEB7BF
:10249000EAE00C94D32BCC9F9001CD9F300D300DF2
:1024A000112490E080E045E34A95F1F700000196A1
:1024B00082179307C1F7E0CF80910703811110C005
:1024C0008091D80080618093D8008AE18A95F1F7E5
:1024D00000C08091D90080FF0AC081E0809307038B
:1024E00081E090910703913009F080E0089582E047
:1024F000809307030E94E3061092BE04F1CF0E946E
:102500005C12882359F0E091A104F091A204309765
:1025100029F00190F081E02D0995089580E008955B
:10252000FF920F931F93CF93DF93EC01F62E042FAE
:10253000122F0E945C1281110FC0C532D1057CF0B0
:10254000A597FE01EE0FFF1FEC0FFD1FE354FC4F9C
:10255000F1820083128303C0C532D10594F3CDB755
:10256000DEB7E5E00C94D82BCF93C82F0E945C1205
:10257000882329F081E0C53228F080E003C081E0A3
:10258000CA34D8F7CF910895B0E0A0E0EAECF2E1C8
:102590000C94B92B7C01C0913E018FE0C89FC02DE7
:1025A00011241FE01C0F1B3408F01AE40E945C1277
:1025B000882319F0163208F015E20E945C1281118E
:1025C00003C0C53208F4C5E220912E0531E0230F87
:1025D00008F42FEF30E050E040E06FEF7FEF80E055
:1025E00090E00E94142C6901D0E001E02C2FC1176B
:1025F00040F0812F0E94B412CDB7DEB7E8E00C9412
:10260000D52BFE01E159FD4F808190913F01892337
:1026100009F14091FD044150042E000C550B47FF79
:102620001BC0C60160912E05600F08F46FEF0E9479
:102630006109AC0160912B0570912C0580912D05ED
:10264000F70109950E946B09462F282F672FCE01AD
:102650000E94F8082196CACFFA01E350FB4F818906
:1026600082130AC0FA01EE0FFF1FE350FB4F818D6A
:10267000928D8C159D05B0F241505109D0CFEF924B
:10268000FF920F931F93CF93DF937C01C0913E0184
:102690008FE0C89FC02D11241FE01C0F1B3408F0D1
:1026A0001AE40E945C12882319F0163208F015E231
:1026B0000E945C12811103C0C53208F4C5E260912A
:1026C0002E056695669521E0620F08F46FEF809104
:1026D000F9049091FA040E946109082FD0E0C11713
:1026E00040F0812F0E94B412CDB7DEB7E6E00C9423
:1026F000D72BFE01E159FD4F808190913F01892345
:1027000091F060912B0570912C0580912D05202F63
:102710004C2FF70109950E946B09462F282F672F30
:10272000CE010E94F8082196DACFB0E0A0E0EBE9F4
:10273000F3E10C94B72B182F80913C01811323C037
:1027400090912A05937020913B0130E081E092172F
:10275000130609F480E081708093400180912F0579
:1027600090913F01981739F080933F0140E060E07D
:1027700080E00E94FB081B3088F4E12FF0E0EA546F
:10278000F34D0C94332C81E0E6CF809140018823F7
:1027900089F140E060E080E00E94FB0880E02AC010
:1027A000C0913E018FE0C89FC02D11240FE00C0F97
:1027B0000B3408F00AE40E945C12882319F00632F8
:1027C00008F005E20E945C12811103C0C53208F4D2
:1027D000C5E260912B0570912C0580912D050E941A
:1027E0006B09F62EE72ED82ED0E0C017D8F0802F38
:1027F0000E94B41290913E019F5F90933E0181111F
:102800000CC082E08093410180914001811105C09C
:10281000111103C083E080934101CDB7DEB7EAE038
:102820000C94D32BFE01E159FD4F808190913F0123
:10283000892331F02D2D4F2D6E2DCE010E94F808E9
:102840002196D3CFC0913E018FE0C89FC02D1124A7
:102850000FE00C0F0B3408F00AE40E945C1288238E
:1028600019F0063208F005E20E945C12811103C0E3
:10287000C53208F4C5E2E0902C05F0902D05D0910A
:102880002B056D2F7E2D8F2D0E946B09D62EC72E06
:10289000B82E60912E056D0F7E2D8F2D0E946B0935
:1028A000F62EE72EA82ED0E0C01708F0A0CFFE012C
:1028B000E159FD4F908180913F01892359F02A2DE4
:1028C0004F2D6E2D90FD03C02B2D4D2D6C2DCE0167
:1028D0000E94F8082196E8CFC0913E018FE0C89F82
:1028E000C02D11240FE00C0F0B3408F00AE40E94F5
:1028F0005C12882319F0063208F005E20E945C128F
:10290000811103C0C53208F4C5E2E0902C05D090D7
:102910002D0520912E05B0E4FB2E3F2D329F312D49
:102920001124F32ED0E0C01708F061CFFE01E15969
:10293000FD4F808190913F018923B9F0FE01EE0F98
:10294000FF1FE156FE4F85AD82958F7060912B057C
:102950008F9D600D11247E2D8D2D0E946B09462FB9
:10296000282F672FCE010E94F8082196DCCFC09156
:102970003E018FE0C89FC02D11240FE00C0F0B34D7
:1029800008F00AE40E945C12882319F0063208F06D
:1029900005E20E945C12811103C0C53208F4C5E251
:1029A000D0902C05E0902D0520912E05F0E4FF2E0F
:1029B0003F2D329F312D1124F32ED0E0C01708F0A7
:1029C00016CFFE01E159FD4F808190913F0189238F
:1029D000D9F0FE01EE0FFF1FE156FE4F64ADF69EEB
:1029E000B0011124E5E075956795EA95E1F78091CE
:1029F0002B05680F7D2D8E2D0E946B09462F282FE9
:102A0000672FCE010E94F8082196D8CFC0913E01D1
:102A10008FE0C89FC02D11240FE00C0F0B3408F07D
:102A20000AE40E945C12882319F0063208F005E2DD
:102A30000E945C12811103C0C53208F4C5E2F09017
:102A40002B05D0912C05E0902D0560912E05669503
:102A5000669566958091F9049091FA040E94610947
:102A60000E944209805887FD8195880F282F3E2DAE
:102A7000239F212D1124822F6F2D7D2F0E946B0902
:102A8000F62EE72ED82ED0E0C01708F0B0CEFE010B
:102A9000E159FD4F808190913F01892331F02D2D27
:102AA0004F2D6E2DCE010E94F8082196EDCF8FEDAF
:102AB00098E00E943F139ECEC0913E018FE0C89FD8
:102AC000C02D11245FE0F52EFC0E2AE42F1510F422
:102AD0004AE4F42E0E945C12882329F035E23F1567
:102AE00010F435E2F32E0E945C12811103C0C5324E
:102AF00008F4C5E260912E05669566958091F9040B
:102B00009091FA040E946109D82E80E48D0D0E94F4
:102B1000420990E8C92EC80E8D2D0E94420920E876
:102B2000B22EB80ED0E0CF1510F08F2D61CEFE0181
:102B3000E159FD4F808190913F018923A1F060917F
:102B40002B0570912C0580912D05ED2C0C2F2B2D34
:102B50004C2D0E9414090E946B09462F282F672FC5
:102B6000CE010E94F8082196DECF8EEC98E0A1CF2E
:102B700087EC98E00E94C4123DCE81EC98E0FACF39
:102B80000F931F930E945C12882329F00E940F0864
:102B90001F910F9108950E940F0800913603109124
:102BA00037032091380330913903600F711F821F62
:102BB000931FEECFCF92DF92EF92FF926B017C01D9
:102BC0000E945C128823A1F02FB7F8946091A404AE
:102BD0007091A5048091A6049091A7042FBF6C1951
:102BE0007D098E099F09FF90EF90DF90CF900895A7
:102BF0000E94C015F4CF0E94630E2FEF84E39CE087
:102C0000215080409040E1F700C0000088E19CE046
:102C10000FB6F894A895809360000FBE9093600063
:102C2000FFCFB0E0A0E0E7E1F6E10C94B92B6C0136
:102C30007B0164E670E088E70E94F9288C01E601D8
:102C4000EC0CFD1C17FD0BC0FE01849164E670E0E6
:102C50000E9465298C012196CE15DF0599F70E9407
:102C6000DB2981E00115110509F080E0CDB7DEB761
:102C7000E8E00C94D52B80919F049091A0049111D1
:102C800003C091E089270895882369F062E070E02D
:102C90008BE695E00E941116811103C080919F047C
:102CA000089510929F0480919F04EBCFCF93C09121
:102CB0009F048091A0048823D1F00E940F08605ADD
:102CC00075418F4F9F4F60939B0470939C0480933A
:102CD0009D0490939E04C11108C062E070E089E6F3
:102CE00095E00E941116811105C0C0919F048C2FA0
:102CF000CF91089581E080939F04F7CF4F925F9228
:102D00006F927F928F929F92AF92BF92CF92DF92FB
:102D1000EF92FF92CF936091B8037091B9038091C5
:102D2000BA039091BB030E94DA156B017C010E94EB
:102D3000C0154B015C018092B8039092B903A09238
:102D4000BA03B092BB03A0918F03EFE8F3E08A2FA0
:102D500090E04FEF5FEF60E070E04C195D096E09A5
:102D60007F09A9132AC080938F038091BC03C0E020
:102D7000811108C080912A05C82FC37019F0C82F8F
:102D8000C695C69580914101813009F440C08823E1
:102D900039F1823009F445C0833009F446C0CF913F
:102DA000FF90EF90DF90CF90BF90AF909F908F906B
:102DB0007F906F905F904F900895218D328D290103
:102DC000712C612C441555056605770520F481505A
:102DD0009F5F3296C6CF2C0D3D1D328F218FF8CFCD
:102DE00010923E018092F9049092FA04A092FB04A2
:102DF000B092FC0489E2EFE8F3E0ADEFB4E00190BB
:102E00000D928A95E1F781E080934101C8CF8C2F24
:102E10000E949513CC2319F20E945C120E945C124E
:102E2000BECF8C2F0E94B408BACF80912905882389
:102E300051F048E050E068E170E08AE295E00E94DD
:102E4000762C109229056091F9047091FA04809112
:102E5000FB049091FC040E94DA1560317105810534
:102E6000910508F49CCF1092410199CFEAE2F5E078
:102E700085E080838091430190914401A0914501B8
:102E800081839283A3838FE784838FEF858348E0D8
:102E900050E068E170E0CF010E94762C1092290585
:102EA00008959091470392FB222720F9281779F083
:102EB00080FB92F99093470360914603709147031A
:102EC00084E090E00E94A42C82E00E94EC0C089523
:102ED000A4E0B0E0EEE6F7E10C94BE2B40912D03A8
:102EE00050912E0360912F03709130032FB7F89407
:102EF0008091A4049091A504A091A604B091A70488
:102F00002FBF841B950BA60BB70B11E084369105E0
:102F1000A105B10570F10E94C0156E5F7F4F8F4F04
:102F20009F4F69837A838B839C8380911901909151
:102F30001A018B5E9C4F4091180150E045305105BD
:102F400010F044E050E0BE016F5F7F4F0E944F2CB5
:102F500083E090E00E94252B182F882351F00E94D7
:102F60000F0860932D0370932E0380932F0390938B
:102F70003003812F2496E3E00C94DA2BEF92FF923A
:102F80001F93CF93DF9300D000D000D0CDB7DEB732
:102F90007B0190E080E00E94252B182F882309F404
:102FA0006AC04091030150E04115510511F041E024
:102FB00050E060910401709105016B5E7C4FCE0181
:102FC00006960E944F2C40910D0350910E03609184
:102FD0000F03709110032FB7F8948091A40490917F
:102FE000A504A091A604B091A7042FBF841B950B44
:102FF000A60BB70B84369105A105B10538F486E11F
:1030000093E00E9487069E818917A9F181E090E0F4
:103010000E94252B882309F44EC040910B0150E0FB
:103020004630510510F045E050E060910C01709180
:103030000D016B5E7C4FCE0101960E944F2C86E104
:1030400093E00E9487069E81891335C00E940F0875
:1030500060930D0370930E0380930F0390931003FE
:1030600085E0FE013196A8E0B3E001900D928A95CB
:10307000E1F711E00BC085E0E6E1F3E0DE01119637
:1030800001900D928A95E1F71111EACF85E0E8E011
:10309000F3E0D70101900D928A95E1F7812F2696F2
:1030A0000FB6F894DEBF0FBECDBFDF91CF911F9159
:1030B000FF90EF90089510E0E9CF4F925F926F92EA
:1030C0007F928F929F92AF92BF92EF92FF920F9357
:1030D0001F93CF93DF937B01FB014080518062807F
:1030E00073809FB7F8948090A4049090A504A0905A
:1030F000A604B090A7049FBF84189508A608B70837
:10310000F4E68F169104A104B10418F4C1E044233D
:1031100029F1C82F880FDD0BFE0183E0EE0FFF1FA2
:103120008A95E1F7E050FF4F818192818B5E9C4F41
:10313000408150E00417150708F4A801B9010E9466
:103140004F2CCE010E94252BC82F882339F00E94D6
:103150000F08F70160837183828393838C2FDF9143
:10316000CF911F910F91FF90EF90BF90AF909F90E4
:103170008F907F906F905F904F900895A9E0B0E09E
:10318000E4ECF8E10C94BD2B88E0EAE2F5E0DE0126
:10319000119601900D928A95E1F78091BC03898781
:1031A00049E050E064E273E0CE0101960E94422CB7
:1031B00041E0892B09F440E009E010E09E012F5F17
:1031C0003F4F61E373E084E00E945D182996E4E0DC
:1031D0000C94D92B0F931F93CF93DF93EC0145E011
:1031E00050E06BE173E00E94422C41E0892B09F42E
:1031F00040E005E010E09E0161E173E082E00E94A2
:103200005D18DF91CF911F910F910895A8E0B0E074
:10321000ECE0F9E10C94BF2B66EE7EEF90E080E0ED
:103220000E94A42C60E082E090E00E94862C60E086
:1032300083E090E00E94862C1092FA021092F9022C
:1032400060E074E184E090E00E94A42C60E086E0FD
:1032500090E00E94862C6FEF87E090E00E94862C21
:1032600040E050E0BA0188E090E00E94982C60E0D5
:1032700084E290E00E94862C60E087E190E00E946A
:10328000862C60E08CE090E00E94862C60E08DE06F
:1032900090E00E94862C19821A821B821C821D8259
:1032A0001E821F82188648E050E068E170E0CE017F
:1032B00001960E94762C40E050E0BA0180E290E056
:1032C0000E94982C40E050E0BA018FE090E00E940C
:1032D000982C40E050E0BA0183E190E00E94982CE5
:1032E0002896E2E00C94DB2B1F920F920FB60F9200
:1032F00011242F933F934F935F936F937F938F93FB
:103300009F93AF93BF93CF93DF93EF93FF93D091AE
:10331000E900DF708091EC00C82FC17080FDC0E82B
:103320001092E9008091F000877F8093F0007894FC
:103330000E94710E1092E9008091F00088608093E5
:10334000F000CD2BCF70C093E900FF91EF91DF919A
:10335000CF91BF91AF919F918F917F916F915F912D
:103360004F913F912F910F900FBE0F901F90189586
:103370001F920F920FB60F9211242F933F934F93EA
:103380005F936F937F938F939F93AF93BF93EF93CD
:10339000FF938091E10082FF09C08091E20082FFEB
:1033A00005C08091E1008B7F8093E1008091DA007D
:1033B00080FF24C08091D80080FF20C08091DA0077
:1033C0008E7F8093DA008091D90080FF9CC080E1DD
:1033D00089BD82E189BD09B400FEFDCF81E0809303
:1033E000BE048091A804811109C00E94E3060E94D6
:1033F00002078091E20084608093E2008091E10006
:1034000080FF17C08091E20080FF13C08091E2002E
:103410008E7F8093E2008091E20080618093E200E1
:103420008091D80080628093D80019BC85E0809399
:10343000BE048091E10084FF2BC08091E20084FFF4
:1034400027C080E189BD82E189BD89B5982F91703F
:1034500080FFFBCF8091D8008F7D8093D800809132
:10346000E1008F7E8093E1008091E2008F7E809367
:10347000E2008091E20081608093E2008091B504D7
:10348000882309F446C084E08093BE048091BE0482
:103490008091E10083FF26C08091E20083FF22C07B
:1034A0008091E100877F8093E10082E08093BE04F9
:1034B0001092B5048091E1008E7F8093E1008091AD
:1034C000E2008E7F8093E2008091E2008061809331
:1034D000E20060E080E00E949E068091F00088603B
:1034E0008093F000FF91EF91BF91AF919F918F91E9
:1034F0007F916F915F914F913F912F910F900FBEF0
:103500000F901F90189519BC1092BE041092A80439
:1035100075CF8091E30087FD93E09093BE04B6CF12
:1035200078941F921FB61F9211248F939F93AF938D
:10353000BF938091A4049091A504A091A604B0919A
:10354000A7040196A11DB11D8093A4049093A50426
:10355000A093A604B093A704BF91AF919F918F91C0
:103560001F901FBE1F9018959C014FB7F894809133
:10357000A4049091A504A091A604B091A7044FBF04
:10358000821B930B08952FB7F8948091A404909117
:10359000A504A091A604B091A7042FBF08950F938E
:1035A0001F93CF93DF93C62FD42F022FFC01858169
:1035B0008823A9F0609328050E94C31A90932705D9
:1035C00080932605C77081E001C0880FCA95EAF78D
:1035D0000E940F11DF91CF911F910F91089580915B
:1035E0002805681335C080912605909127050E9413
:1035F000B41A883C910560F510E21D0FCD17B9F0A3
:1036000080E28C0F883040F4C77081E001C0880FE1
:10361000CA95EAF70E940811183048F481E09D2FFE
:10362000977001C0880F9A95EAF70E940F11802FBA
:103630000E943C11802F0E941911183058F6D77043
:1036400081E001C0880FDA95EAF70E940811C2CF25
:10365000C77081E001C0880FCA95EAF7F6CFB0E0E5
:10366000A0E0E5E3FBE10C94B72B8C01DC011496A0
:103670008C911497882309F45BC021E04C9111963A
:103680005C91119712966C91129713967C911397F7
:1036900015969C910E943B0DEC01F8018581FE017D
:1036A000E851FC47882309F418C490E29093330151
:1036B000D0936703C09366039E01305221153043B7
:1036C000B8F49E0133273093670320936603D80133
:1036D00011969C911197909369039C919093680324
:1036E000E730F10508F040C0EF53F34D0C94332C54
:1036F000CC33D10560F7DE01AA5BBE4F9C9190935D
:103700003301E5CF26E241EE61EEC8010E94CF1AF7
:103710008091ED02877061F0D80115968C91882315
:1037200039F08091470382FF03C082E00E94EC0CD5
:10373000CDB7DEB7EAE00C94D32B27E245EE65EE79
:10374000E4CF26E241EE60EEE0CF27E245EE64EE04
:10375000DCCF26E241EE62EED8CF27E245EE66EE00
:10376000D4CF28E241E0EBCF109228059E013057DC
:103770002332310508F0CDC384E090E00E94702C24
:103780009093470380934603FE01E150F047E232F5
:10379000F10520F4E853F34D0C94332C809146034B
:1037A00081608093460395C0809147038860809331
:1037B00047038FC0809146038260F3CF8091460318
:1037C0008460EFCF809146038860EBCF8091470300
:1037D0008160EDCF809147038260E9CF80914603FD
:1037E0008061DFCF809146038062DBCF809146030A
:1037F0008064D7CF0E94630E809146038068D1CF4A
:10380000809146038C60CDCF809147038360CFCFFA
:10381000809146038E7FC5CF80914703877FC7CFB6
:10382000809146038D7FBDCF809146038B7FB9CFBA
:1038300080914603877FB5CF809147038E7FB7CFB6
:10384000809147038D7FB3CF809146038F7EA9CFB0
:10385000809146038F7DA5CF809146038F7BA1CFBA
:103860000E94630E809146038F779BCF8091460321
:10387000837F97CF809147038C7F99CF80914603B8
:1038800082FB992790F921E0922790FB82F990FB27
:1038900083F987CF80914703982F909591708E7F01
:1038A000892B90FB81F983CF90914603892F8F7BE1
:1038B00096FF806476CF0E94630E90914603892F15
:1038C00097FB87F980586DCF61E08EE090E00E9411
:1038D000862C609146037091470384E090E00E943B
:1038E000A42C0E94630E14CF60E0EFCF90914603AA
:1038F000892F8F7E94FF806154CF90914603892F4A
:103900008E7F90FF81604DCF90914703892F877FF5
:1039100093FF88604CCF85E3EEC2811156C0809141
:10392000F8028272FE01E052F847E531F10508F035
:103930005CC0E651F34D0C94332C80912A0591E044
:10394000892780932A051092410180912905816081
:1039500080932905DDCE4FE958E069EA78E00E94BE
:103960003508D6CE49EA58E06FE978E0F8CF4BE861
:1039700058E065E978E0F3CF45E958E06BE878E096
:10398000EECF41E758E06EE778E0E9CF4EE758E048
:1039900061E778E0E4CF47E558E064E678E0DFCF20
:1039A00044E658E067E578E0DACF4BE358E069E4B5
:1039B00078E0D5CF49E458E06BE378E0D0CF81E000
:1039C0000E944F06A5CE85E0FBCFC330ECE7DE07B3
:1039D00009F478C008F05BC0C1152CE7D20709F4E0
:1039E00064C0C130DC4709F473C0F8018581C0812F
:1039F000D181882309F47AC0CE010E942B0CF82EC5
:103A0000682FCE010E949F0CBE018F2D0E94FD0ADF
:103A10000E941C0BD82FC92FA82ED8011596CC9028
:103A200015971696BC90B2943FE0B3228091ED02B8
:103A30008770F1F0FC2CCC20E1F0892F807F80345E
:103A400051F080E28D0F883098F0B11004C0892FBA
:103A5000807E803269F08091470382FF09C082E056
:103A60000E94EC0C8091ED028770FF24F394811189
:103A7000F12CEC2EE2942FE0E222BBE0BE1508F41C
:103A80009AC0EE2DF0E0E150F34D0C94332CCB3581
:103A90008CE7D80749F1CC359CE7D907D9F0CA356E
:103AA000DC4709F0A2CF81E01CC00E94630EBFEF8B
:103AB000E4E3FCE0B150E040F040E1F700C000007A
:103AC0000E94DE116FEF7FEF90E080E00E94A42C57
:103AD0000E94FB158091470382FB882780F991E0C3
:103AE00089270E94511781CF80E0FBCFCE010E9431
:103AF0006C0CF82E89CFEC2FEF70DE2EC07F19F002
:103B0000D29490EFD922CC20B9F0DD2069F080E288
:103B10008D0F883010F0A11009C08091F802D82ACA
:103B2000D092F8020E94260E8D2F43C08091F7029A
:103B3000D82AD092F702F6CF8D2F0E941911DD20DE
:103B4000D1F1D05ED83010F0A11004C08D2D0E94AC
:103B50001A0C06C0D0948091F702D822D092F702B6
:103B60000E94260E28C0FC2FFF70DF2EC07FC032BF
:103B700019F0D29480EFD822AA2059F021E0A216A1
:103B800009F479C0CC2009F485C0BB2009F447C0F2
:103B9000CBCF8091470382FD3EC0CC20B1F1DD2028
:103BA00039F08091F802D82AD092F8020E94260EAD
:103BB00080E00E943C11EE2DE850FF0B349710F48A
:103BC0000E947F12FF20B1F08091ED0280FD12C0B3
:103BD000D80115961C928695869586950E94030DB0
:103BE000C8010E942F1B8091ED02869586958695CF
:103BF0000E94DA0C20E0F8014081518162817381DA
:103C0000848195810E943B0D93CD80E00E94191123
:103C1000DD2089F29BCFCC20A1F0B11004C08D2D06
:103C20000E940F11C8CF31E0B312C5CF8091F602C8
:103C30009D2D9823D91609F4BECFD82AD092F6022A
:103C4000BACFB110B8CF8D2D0E9408119091F60215
:103C50008D2D892329F08D2D809589238093F6025F
:103C60008091C5029D2D982309F4A5CFD094D82228
:103C7000D092C502A0CFCC2029F085E08B1508F4A6
:103C80009ACFCDCF94E09B1508F495CF8D2D0E944F
:103C9000081191CFBB20D1F3A9E3AA1209C0BFEF4D
:103CA000E7EEF3E0B150E040F040E1F700C0000083
:103CB0008D2F0E9419117FCF8C2F837009F03FC088
:103CC000C11079CF4D2F429546954770440F440F50
:103CD0002D2F2F7030E0042E02C0220F331F0A94C4
:103CE000E2F790E080E0D4FF09C08FE090E002C0EE
:103CF000880F991F4A95E2F780959095C695C695CD
:103D0000C370C23099F078F44091F9025091FA02F0
:103D1000C13039F0822B932B842395230E94130DFD
:103D20004ACF242B352B822B932BF8CF822B932B2E
:103D30002091F9023091FA0282279327EFCF8695DE
:103D4000CC2011F08C2F8170882309F434CF4D2FB3
:103D5000429546954770440F440F2D2F2F7030E049
:103D6000042E02C0220F331F0A94E2F790E080E095
:103D7000D4FF09C08FE090E002C0880F991F4A95D8
:103D8000E2F780959095C695C695C370C23099F0BC
:103D900078F440915D0350915E03C13039F0822B7D
:103DA000932B842395230E94D50C05CF242B352BF0
:103DB000822B932BF8CF822B932B20915D03309194
:103DC0005E0382279327EFCFCF70CC2029F08C2F72
:103DD0000E94030D8D2F24CF8D2F0E9408118C2F50
:103DE0000E94DA0CE8CE8D2F22EFA21699F12A1547
:103DF00070F030EFA316D1F091EFA91691F0CC201E
:103E000009F45BC0B11090CE8C2F8F7127C0A3EF47
:103E1000AA1639F1B4EFAB12F2CF8091470382FDBD
:103E20002EC08C2F8F71CC20D9F218C0CC2069F015
:103E3000E4E0EB1508F4BFCECF7181E090E002C062
:103E4000880F991FCA95E2F7B8CFF5E0FB1508F483
:103E5000B2CEF2CF8C2F8F71C110C2CF0E94030D52
:103E6000AACE90E080E0CC2009F49DCFCF7181E014
:103E700090E002C0880F991FCA95E2F794CFCC203A
:103E800089F0CF718C2F0E94030D8091470382FF30
:103E900007C028E0C29FC001112483608093ED0217
:103EA0008C2FDCCF81E00E94EC0C31E03B1508F058
:103EB00082CE82E00E94EC0C7ECEBB2059F089338A
:103EC00009F0F6CE8FEF97EEA3E081509040A0402E
:103ED000E1F7ECCE8C2F8F7183CFE730F10508F43A
:103EE00003CCC631BCE7DB0709F019CD8091C402D1
:103EF000811111CD89E2EEEBF2E024EC32E09191F8
:103F0000891303C0DF0111971C922E173F07B9F7E1
:103F100014C0C631FCE7DF0709F0FFCC8091F8023E
:103F20008A7A91E009F490E09093C40269E28111E9
:103F300065E38CEB92E00E941B080E94260EE8CB02
:103F4000CF93DF938091EC02807F09F04DC0809188
:103F5000EB02882309F448C0E091F8045091BF04B3
:103F6000C091E702D091E6026091E8027091E90207
:103F700047E05E17C9F18E2F90E0E49FF001112415
:103F8000E054FB4F2481222391F1489FF001499F87
:103F9000F00D1124DF01A054BB4F11962C91119705
:103FA0002C1325C02C912D1322C015962C911597FA
:103FB00021111DC012962D913C91261B370B283CD8
:103FC0003105A8F48091EC028F7080618093EC023F
:103FD000EA53FB4F80818F708061808386EE92E090
:103FE0000E942F1B0E94210CDF91CF910895FC01AC
:103FF0003196E770BECFA4E1B0E0E1E0F0E20C94CE
:10400000B52B8C0186E0F801DE011F9601900D9220
:104010008A95E1F7F8018481E58096EEA92E92E079
:10402000B92E9091EA02911128C0882319F1EE204F
:10403000F1F0C8010E94180DF82E8823C1F087E026
:10404000F801D50101900D928A95E1F78091EA027D
:10405000813031F48091E6029091E7020E945F0C7A
:104060000E94A01F8F2D6496ECE00C94D12BC80108
:104070000E942F1BFF24F394F5CFD080C180828053
:104080009380F090EB022091E8023091E902A401C4
:10409000421B530BFF2009F4D9C0483C510508F0DE
:1040A00092C08823F9F29091E7028091EC02282FC8
:1040B000207F09F056C0C91214C09091E602D912AF
:1040C00010C0E11048C08F7080618093EC0286EED2
:1040D00092E00E942F1B8091EC02F8018683F12C64
:1040E000C1CFE11038C06C2D8D2D0E9468066C2D5B
:1040F0008D2D0E946806E82E8111F1CFDF86C88AD7
:104100008F8598890E945F0C292F22952F7024306B
:1041100058F49F70223088F0992399F0F801968125
:10412000907F79F4FE2C9ECF2A5F2F70223068F0AA
:10413000C8010E942F1BEF2CF5CF992311F0882383
:1041400089F3805E883070F3F3CF803F58F3815F4E
:10415000833070F7E7CF8091EC0281608093EC02AE
:10416000BECFC91207C09091E602D91203C0EE205B
:1041700009F48DC0C8010E94180D882309F477CF77
:10418000EE2009F474CF8091EC02803288F0209107
:10419000E6023091E702398728879B868A869091CC
:1041A000EA029C871D868E87CE0108960E942F1BEF
:1041B00087E0F801A6EEB2E001900D928A95E1F752
:1041C0000E94A01F57CF9091EC02292F207F51F41D
:1041D00086EE92E00E942F1B87E0F50111928A95EE
:1041E000E9F77DCF882309F43DCF8091E7028C1158
:1041F00010C08091E602D8120CC0E1100AC096836C
:10420000C8010E942F1B87E0F50111928A95E9F7FA
:1042100029CFC8010E94180D882309F428CFEE2069
:1042200009F425CF8091EC02803210F22091E60251
:104230003091E7023A8329839C828B829091EA0233
:104240009D831E828F83CE010196B0CF483C5105DD
:10425000D0F6882309F40ECFFE2CEE2009F407CF08
:104260008091E7028C1120C08091E602D8121CC018
:104270008091EC0280FD0FC0982F907F61F08683C3
:10428000903F31F0982F907F905F8F70892B8683BD
:10429000C8010E942F1B87E0F801A6EEB2E0019052
:1042A0000D928A95E1F7DECEC8010E94180D8111AA
:1042B0007FCF8091EC0281608093EC02C8010E9464
:1042C0002F1BD0CEABE1B0E0E8E6F1E20C94BD2BC1
:1042D0004E8B5F8B688F798F8A8F9B8F192F9111EF
:1042E0001092F7021D8A86E0FE017696DE011F9687
:1042F00001900D928A95E1F70A8D002341F021E0AB
:104300004F85588969897A89C8010E943B0D0B8BBA
:104310001C8B87E0FE013F96DE01189601900D92FE
:104320008A95E1F7CE0108960E94FB1F81112AC0F1
:1043300087E0FE013896DE01119601900D928A9574
:10434000E1F78C858823F1F02091BF0430E0C901AA
:104350000196877099274091F80448171906E9F0EB
:1043600097E0929FD001939FB00D1124A054BB4FB2
:10437000FE01319601900D929A95E1F78093BF046A
:104380000E94210C17E08091F8049091BF048913DA
:1043900012C06B96E4E00C94D92B0E94630E10922D
:1043A000BF041092F80487E0E6EEF2E0DF011D9210
:1043B0008A95E9F7E7CF819FC001112480549B4F74
:1043C0000E94FB1F882329F38091F80490E0019656
:1043D000877099278093F804D6CFAFE0B0E0E3EF81
:1043E000F1E20C94B42B8E010F5F1F4F8AE0D801CD
:1043F0001D928A95E9F784E8C82E81E0D82EF12C29
:10440000E12CAA24A394B12C2FE8822E21E0922E35
:10441000F60181916F018F3F09F442C0F894E82FB3
:10442000E295EF70F0E021A18F70A50102C0440F6A
:10443000551F8A95E2F7CA01922F982B91A392A15A
:104440008095892382A3789400C0E9E8F1E0712C7B
:1044500031E021912F3F09F46BC0A22FA295AF70DC
:10446000B0E090968C9190E02F7002C09595879562
:104470002A95E2F780FD5CC0832F782A330F8E16D1
:104480009F0639F7F601319780818F3F11F00E9426
:10449000010A50EA5A95F1F7F801EE0DFF1D7082FE
:1044A0008FEFE81AF80AA5E0EA16F10409F0B0CF98
:1044B0004AE050E0B8018AE393E00E94422C009762
:1044C00041F02AE0F801AAE3B3E001900D922A95A9
:1044D000E1F700914503892B69F181E08093FF02A8
:1044E0000E94C31A9093FE028093FD028091FD0208
:1044F0009091FE020E94B41A059700F110E0085B4B
:104500001C4F45E050E06AE373E0C8010E94422C72
:10451000D12C892B51F085E0EAE3F3E0D80101903A
:104520000D928A95E1F7DD24D3941092FF0207C023
:1045300080E0A3CF8091FF028111D8CFD12C0E94BF
:104540005C12C82EE0914503882309F47FC07E01E8
:10455000BBE0EB0EF11C85E0D7011D928A95E9F7CF
:104560000E2F10E0085B1C4F809135038A30D8F580
:104570004EEB57E1B701C8010E942912882309F4C4
:1045800054C04AEE58E1B701C8010E94291288239D
:1045900009F44BC048E657E1B701C8010E9429124F
:1045A000882309F442C04EEB58E1B701C8010E94CC
:1045B00029128823D1F1109235038091440390E0B1
:1045C00045E050E0B701885B9C4F0E94422C21E0FF
:1045D00020930603892BE1F4C12C8C2D8D292F9675
:1045E000EDE00C94D02B80910003909101030E9488
:1045F000B41A843F914008F0BBCF80910603882312
:1046000059F385E0F70111928A95E9F710920603B4
:10461000A0914403B0E0A85BBC4F85E0FE013B964F
:1046200001900D928A95E1F7D8CF809135038F3FA5
:1046300031F08F5F809335038A3008F4BECF0E943B
:10464000C31A9093010380930003D7CF00914403D2
:1046500010E0085B1C4FF0E0E85BFC4F85E0A6E152
:10466000B3E001900D928A95E1F786E193E00E9414
:1046700087068093150385E0EBE1F3E0D801019014
:104680000D928A95E1F78090200390902103A090ED
:104690002203B09023038091020390910303A09121
:1046A0000403B091050388169906AA06BB06D1F04B
:1046B0008092020390920303A0920403B092050338
:1046C0000E945C1281110EC00E940F08861A970A80
:1046D000A80AB90A8092360390923703A092380351
:1046E000B092390388E0E4E2F3E0AAE2B5E0019099
:1046F0000D928A95E1F710912C03112349F08091D6
:10470000BC03811105C00E94951380E00E94B4088B
:104710001093BC0362CFA6E0B0E0E1E9F3E20C94B1
:10472000BD2B0E94C31A8C018091FB029091FC0268
:104730008017910781F019821A820E94C31A682F8C
:1047400049815A81792F80E090E00E946221109384
:10475000FC020093FB022696E4E00C94D92B1F92F6
:104760001FB61F9211248F939F93AF93BF93809195
:10477000A304811113C08091A4049091A504A09179
:10478000A604B091A7044196A11DB11D8093A40475
:104790009093A504A093A604B093A704BF91AF91F2
:1047A0009F918F911F901FBE1F901895CDB7DEB7B8
:1047B0002B970FB6F894DEBF0FBECDBF85B78068CC
:1047C00085BF85B7806885BF84B7877F84BF0FB6F4
:1047D000F894A895809160008861809360001092A1
:1047E00060000FBE80E890E00FB6F89480936100FF
:1047F000909361000FBE8FEF99E09093BB0280937E
:10480000BA020E94E3060E9402078091E2008460DF
:104810008093E20078948091BE048823A1F01091E7
:10482000E9001F709091EC00892F817090FD80E865
:10483000182B1092E9008091E80083FD0E94710E10
:104840001F701093E90082E084BD93E095BD9AEF5C
:1048500097BD80936E00109236031092370310922A
:104860003803109239030E945C12809328010E9441
:104870005C1281110E94392A8091280180912801BF
:1048800095E0811190E09093450385E0891B80932A
:10489000440304E811E0D8018D918D018F3F11F0A0
:1048A0000E94010AB1E009381B07A9F709E811E0E5
:1048B000F80181918F018F3F11F00E94010AF1E010
:1048C0000F381F07A9F78AE0E8E4F3E0DF01082FBB
:1048D0001D920A95E9F7EAE3F3E0DF011D928A955C
:1048E000E9F790E080E00E94702C863E9E4F11F028
:1048F0000E94061982E090E00E94682C8093520387
:1049000084E090E00E94702C9093470380934603CC
:104910000E94ED21EFEFF6E701E0E150F0400040AA
:10492000E1F700C000000E94ED218091480380FF64
:1049300008C06FEF7FEF90E080E00E94A42C0E94FF
:10494000DE1183E090E00E94682C90E00E94130D3D
:104950001092FD048FEF9FEF90931705809316053B
:10496000909319058093180590931B0580931A0561
:1049700090931D0580931C0590931F0580931E0541
:104980009093210580932005909323058093220521
:10499000909325058093240510928F039093A9038B
:1049A0008093A8039093AB038093AA039093AD03E5
:1049B0008093AC039093AF038093AE039093B103C5
:1049C0008093B0039093B3038093B2039093B503A5
:1049D0008093B4039093B7038093B60390E080E094
:1049E0000E94702C863E9E4F21F00E9406190E9464
:1049F000361781E08093290548E050E068E170E0D7
:104A00008AE295E00E94582C1092290580912A058F
:104A10008C7F11F40E9436170E945C12811128C10C
:104A200082E080938A0380E8809337050E94F32810
:104A30006BE070E08BE292E00E9411168823E9F1AE
:104A400080918A0365E070E081FD14C186E292E006
:104A50000E941116882389F16DE070E084E192E0F4
:104A60000E941116882349F10E940F08605A75416F
:104A70008F4F9F4F60939B0470939C0480939D0481
:104A800090939E04EAE3F5E080E092E0DF018C0180
:104A90001D9201501040E1F7F0934107E093400769
:104AA0008FEF9FEF909339058093380581E08093D5
:104AB000A00480939F0410928B030E945C128111CA
:104AC00002C00E943C2A89E291E09093A204809364
:104AD000A1048091BE04853089F440E4F42EEE24D4
:104AE000E39400E112E18091BE04853009F4C5C071
:104AF0000E94630E0E947F121092BC030E94ED215F
:104B000003E513E018870F8308E413E01B870A8787
:104B1000D801E3E5F3E091918D912DE533E02E1777
:104B20003F0709F4F3C09817B1F30E945C12882E76
:104B30003FE9632E31E0732EC12C44244394AA85AF
:104B4000BB85BD90BB87AA87EF81F8855190F88718
:104B5000EF835B1409F480C01301A12C9924939472
:104B60005B24852D892109F46BC0DB2CD92088209A
:104B700099F0A982CA820E94C31A9C838B834D82BA
:104B800091E0D11001C090E09E8349815A816B81F0
:104B90007C818D810E946221D11017C1D1018C913D
:104BA0008F3F09F014C10D2D10E080918F03800F0D
:104BB000912F911D09976CF188E0E82EF12CE01AF5
:104BC000F10AB80160577C4FA70180E993E00E9489
:104BD0004F2CB80168567C4FA70188E993E00E94EA
:104BE0004F2CA701440F551FB801660F771F68555A
:104BF0007C4F88EA93E00E944F2CB80160567C4FAE
:104C0000A70180EA93E00E944F2C88E08D198093E1
:104C10008F0380918F0390E0E985AE2FB0E09D0176
:104C2000220F331F25523E4FAA0FBB1FBD016452F6
:104C30007E4F41E0480F9D1508F4CDC080938F034F
:104C4000A394990CEFEF2E1A3E0AF6E0AF1289CF2B
:104C5000EF81F8853197B082C39406E0600E711C35
:104C60001AE0C1126CCF0E94C015DD24D39453C04A
:104C700080E0D7CE81E292E0EBCE8091BE0484301A
:104C800009F432C00E947E168091BC03811105C0D8
:104C90000E94951380E00E94B408E092BC030E9439
:104CA0003B161092A30428E130E00FB6F894A895C3
:104CB000209360000FBEF092600083B7817F846014
:104CC00083BF83B7816083BF7894889583B78E7FD5
:104CD00083BF0FB6F894A895809160008861809397
:104CE0006000109260000FBE8091B404882309F424
:104CF000FACE0E94ED21E8E4F3E0819181115DC2DA
:104D000042E553E04E175F07C1F7EDCE98130DCF84
:104D10000E948B23D12C0E945C120E947E168091EF
:104D2000A004882309F4D7C080918C0390918D034F
:104D30000E94B41AC29708F4AEC00E94C31A90939E
:104D40008D0380938C038AE395E0909341078093D1
:104D500040070E945C12882309F410C189E592E0A3
:104D60000E94E00D20915D0330915E03832F99270F
:104D7000009709F446C09C0188E0A90174E05695AB
:104D800047957A95E1F74115510511F08C5F9A012D
:104D9000A90156954795569547954115510511F02E
:104DA0008E5F9A0136952795232B09F08F5F81300E
:104DB00009F4A0C0882339F1823009F49EC0833001
:104DC00009F49EC086E392E020C0D12CECCE898706
:104DD000DD24D394E8CE90E0FC01E157FC4FD901EB
:104DE0005C915183DB015C915187B985B18B880F50
:104DF000991FFC01E157FC4F128E118E91E0842F18
:104E000018CF80E0BACF81E592E00E94200E809119
:104E100069030E94E805FC01019620812032D9F344
:104E2000CF010E94751187E692E00E94E00D80910B
:104E300068030E94E805FC01019620812032D9F325
:104E4000CF010E94751183E692E00E94E00D409030
:104E500066035090670380913101909132014816AA
:104E6000590609F050C080916503803209F04BC0AB
:104E70002FE533E0C9012F5F3F4FFC0140814032F5
:104E8000C9F30E94751181E692E00E94E00D8091C5
:104E900033010E94600D8091380590913905892B6E
:104EA00009F0AAC080919F048823A9F00E940F08EE
:104EB00000919B0410919C0420919D0430919E04CC
:104EC000601B710B820B930B6F3F7F4F8F4F9F4780
:104ED00010F40E943B16D1100E9456160E947F12B9
:104EE00090918E03891709F4F4CD80938E030E946C
:104EF0000F08EFCD8BE492E088CF85E492E085CF78
:104F00008EE392E082CF509232014092310180E2F2
:104F100080936503712C612C109264030FE5A02E21
:104F200003E0B02E8AE5E82E83E0F82E8501C30168
:104F3000B2012AE030E040E050E00E94F22B605DD8
:104F4000603319F4A016B10631F041145104610424
:104F5000710409F460E2D80114966C93C301B201A4
:104F60002AE030E040E050E00E94F22B29013A01B3
:104F700001501109E016F106D1F67ACF8091400771
:104F8000909141078A5395409C013E5F2130324009
:104F9000B0F020E032E0281B390B409138055091E9
:104FA0003905E9E6F2E0280F391F61E070E0821769
:104FB000930740F050933905409338056CCF20E0BB
:104FC00032E0EBCF1491DC01A65CBA4F0C911017C4
:104FD00081F01C93DC0115E0B695A7951A95E1F7D1
:104FE0008B0102C0000F111FAA95E2F7D801402BD8
:104FF0005B2B01963196DBCF8091A004882309F4C6
:1050000051CF80918B0381114DCF0E945616209174
:105010003805309139052115310509F443CF80E079
:1050200041E050E0082F10E07A01082E02C0EE0C9B
:10503000FF1C0A94E2F7B70162237323672B11F474
:105040008F5FF0CF90918A0390FF9EC0880F880FEA
:10505000880F8093360110923901895F8093370160
:1050600083E080933A0124E630E047E050E064E3D7
:1050700071E088E70E949329892B09F013CFA801DA
:1050800025E0440F551F2A95E1F780918A0380FFA0
:105090008DC0EAE6F3E080E2DF011D928A95E9F730
:1050A000E3E9F1E0F887EF830FE811E087E9282EC4
:1050B00081E0382E97E0992E88248394AF81B885BB
:1050C0002D91B887AF83F80141908F01440E552E82
:1050D000511CC201865C9A4F2C01E22FF0E0E65988
:1050E000FC4F30E020E0692C621AC82C022E01C06F
:1050F000CC0C0A94EAF7520190E0D5018D915D0144
:105100008C21662D691B6770762E062E000C770B9E
:10511000B82F01C0BB0F7A94EAF77B2E7195619589
:1051200071096770772701C086956A95EAF7782A32
:105130008081782A70829F5F9830F9F62F5F3F4F09
:1051400031962830310579F6EF81F8852E163F0625
:1051500009F0B4CF04E610E020E230E04AE653E084
:1051600060E488E70E94B429892B09F09BCEE09483
:10517000F0948091380590913905E822F922F09257
:105180003905E09238058ECE8295880F807680931F
:105190003601980136952795369527952093390144
:1051A000815E8093370120933A015DCF465C5A4F70
:1051B00004E610E020E230E0D3CF09BD19BD09B408
:1051C00000FEFDCF8091D8008F7D8093D800809124
:1051D000E00082608093E0008091E00081FDFCCFE0
:1051E0000E94630E80CC1092B9008CE08093B800CE
:1051F0000895B0E0A0E0EFEFF8E20C94B62BB82EE3
:10520000EB010E94C31A6C01EE24E394F12CC4312B
:10521000D10560F025E0E22EF12CCF3FDC0731F024
:10522000CE0164E170E00E949B2B7B0184EAA82EF2
:1052300094E8992E1092BC00A092BC000E94C31A60
:105240008C018091BC0087FF0DC08091B900887FE0
:105250008830F9F08091B900887F8031D1F00FEF6C
:105260001FEF08C0C8010E94B41AE816F90648F7F3
:105270000EEF1FEFCF3FDC07E9F2C6010E94B41A20
:10528000C817D907B8F6C801CDB7DEB7EBE00C9464
:10529000D22BB092BB009092BC000E94C31A8C012A
:1052A0008091BC0087FF0AC08091B900887F883157
:1052B00011F08034A1F610E000E0E5CFC8010E94B3
:1052C000B41AE816F90660F7D3CF0F931F93CF9364
:1052D000DF93EB018093BB0084E88093BC000E94C5
:1052E000C31A8C018091BC0087FF11C02091B900C6
:1052F000287F81E090E0283211F490E080E09195E1
:1053000081959109DF91CF911F910F910895CF3F22
:10531000DC0741F3C8010E94B41AC817D90710F777
:105320008EEF9FEFEFCFB0E0A0E0E9E9F9E20C9457
:10533000B92B6B018A017901B9010E94F928E601B4
:105340000C0D1D1DC017D10711F097FF08C024E9EF
:105350002093BC00CDB7DEB7E8E00C94D52BB701A5
:1053600089910E946529EECFB0E0A0E0EAEBF9E276
:105370000C94B92BC62F6A017901B8010E94F92853
:1053800097FD0CC0B8018C2F0E946529E601EC0C3A
:10539000FD1CCE15DF0511F097FF08C024E920930E
:1053A000BC00CDB7DEB7E8E00C94D52BB8018991ED
:1053B0000E946529EECF84E98093BC0008958EE1B8
:1053C0004A9B02C08150E1F74A9BFECF08955A984C
:1053D00080E28A95F1F75A9A0895FC013BE03A95EC
:1053E000F1F798E020E080E031E040E14A95F1F704
:1053F000880F4A9B02C08160232742E04A95F1F75B
:10540000000040E14A95F1F7915079F790E19A95C3
:10541000F1F799B132E03A95F1F7000040E14A9591
:10542000F1F792FB992790F992272081920F9083B0
:105430000895A1E0B0E0EFE1FAE20C94BB2B1982F1
:105440008C017C01E60EF11C0E151F0541F481E074
:105450009981911180E02196E6E00C94D72B0E946F
:10546000DF29CE0101960E94ED29F80181938F0179
:10547000EBCF529A5A9A089552985A9AEA9AE9E6C4
:10548000F0E080818F7C808308956150770B91E0FC
:1054900001C0990F6A95EAF720E031E0911108C048
:1054A000222391F05A9A80E28A95F1F75A9808954A
:1054B000492F482339F05A9A232740E24A95F1F7B9
:1054C0009695ECCF5A98F9CF5A98EDCFFF920F935B
:1054D0001F93CF93DF93EC018C01060F111DC017B2
:1054E000D10729F4CDB7DEB7E5E00C94D82BF990BD
:1054F0000E94E72968E08F2D0E94452AF0CF1F9275
:105500000F920FB60F9211240F931F932F933F9377
:105510004F935F936F937F938F939F93AF93BF93BB
:10552000EF93FF93CF93DF930F92CDB7DEB719823E
:105530000E94DF29CE0101960E94ED29082F0695D1
:1055400006950695282F22952570902F9570290F86
:10555000922F937026952695920F982797708981A0
:10556000982B09F05CC0063008F059C080E18A959C
:10557000F1F75A9A529A82E08A95F1F700C05A9848
:1055800088E0089F80011124D801A050BF4F1696D3
:10559000ED91FC9117973097A9F06091820170917D
:1055A000830114962D913C911597260F371F119664
:1055B0008D919C911297680F791F13964C911397B8
:1055C0008C910995F801E050FF4F6381662351F0FB
:1055D000209182013091830184819581820F931FF4
:1055E0000E94662A0E94E72980E18A95F1F75A987D
:1055F00052985A9A80E18A95F1F7F801E050FF4FEE
:105600006081662351F02091820130918301818174
:105610009281820F931F0E94192A0E94DF290F9006
:10562000DF91CF91FF91EF91BF91AF919F918F91BA
:105630007F916F915F914F913F912F911F910F91AA
:105640000F900FBE0F901F9018950F931F93CF933D
:10565000DF93EC0106970CF04CC0F894529A5A98DC
:1056600085E08A95F1F700009C2F969595708C2F18
:105670008570980F892F83709695969523E0CC0FAF
:10568000DD1F2A95E1F7980F8E01092B0E94E7296B
:1056900000C068E0802F0E94452A80E18A95F1F7DA
:1056A00052985A9A4A9B1EC087E090E04A991CC0C3
:1056B000FE01E050FF4F63816623F9F020918201E3
:1056C0003091830184819581820F931F0E94192A52
:1056D000811113C0529A5A9A7894DF91CF911F91F9
:1056E0000F91089500C0DECF019729F4529A5A9A7B
:1056F000789480E0F2CF00C0D9CF0E94DF2980E209
:105700008A95F1F75A98529A80E18A95F1F7C0503C
:10571000DF4F6881662351F020918201309183012F
:1057200089819A81820F931F0E94662A0E94E7292D
:10573000789481E0D2CFAA1BBB1B51E107C0AA1FFE
:10574000BB1FA617B70710F0A61BB70B881F991F22
:105750005A95A9F780959095BC01CD0108952F9297
:105760003F924F925F926F927F928F929F92AF92F1
:10577000BF92CF92DF92EF92FF920F931F93CF933E
:10578000DF93CDB7DEB7CA1BDB0B0FB6F894DEBFD5
:105790000FBECDBF09942A88398848885F846E84FB
:1057A0007D848C849B84AA84B984C884DF80EE8045
:1057B000FD800C811B81AA81B981CE0FD11D0FB64E
:1057C000F894DEBF0FBECDBFED010895991B79E0BF
:1057D00004C0991F961708F0961B881F7A95C9F781
:1057E00080950895A1E21A2EAA1BBB1BFD010DC0D6
:1057F000AA1FBB1FEE1FFF1FA217B307E407F50781
:1058000020F0A21BB30BE40BF50B661F771F881F5C
:10581000991F1A9469F760957095809590959B01F2
:10582000AC01BD01CF010895052E97FB1EF4009435
:105830000E942B2C57FD07D00E94F22B07FC03D0AF
:105840004EF40C942B2C50954095309521953F4F5C
:105850004F4F5F4F089590958095709561957F4F5C
:105860008F4F9F4F0895EE0FFF1F0590F491E02D8D
:105870000994FB01DC0102C005900D92415050409B
:10588000D8F70895FB01DC0104C08D9101908019C7
:1058900021F441505040C8F7881B990B0895FB0133
:1058A000DC0102C001900D9241505040D8F708959C
:1058B000DC01CB01FC01F999FECF06C0F2BDE1BDD0
:1058C000F89A319600B40D9241505040B8F70895BF
:1058D000F999FECF92BD81BDF89A992780B50895B8
:1058E000A8E1B0E042E050E00C945A2CDC01A40F97
:1058F000B51F4150504048F0CB01840F951F2E91A9
:105900000E94872C41505040D0F70895262FF999D6
:10591000FECF92BD81BDF89A019700B4021639F00E
:105920001FBA20BD0FB6F894FA9AF99A0FBE0895DF
:105930000396272F0E94872C0E94862C252F0E94D9
:10594000872C242F0C94872C0196272F0E94872CBC
:105950000C94862CF894FFCF500F780FF610780F28
:10596000F610AB0FCC0FF610B610C210C513D01343
:1059700022146C14B714061557155C15B515B81517
:10598000BD15A11BA51B821B9D1BA91BAD1BB11B1C
:10599000081C7D1C101CDA1BDE1B141CE21B181CCF
:1059A000241CEE1B761CF21B281CF61B2C1C541C02
:1059B000FA1B301C5B1C001C361C3E1CE61B1C1C0E
:1059C000EA1B201C041C3A1C4A1C641C741CD41BBB
:1059D0000C1C841C9D1CAB1CB21CB71CBC1CC11C29
:1059E000C61CCB1CD01CD51CDA1CDF1CE31C881B7E
:1059F000881B881B881B881B881B881B881B7B1D9A
:105A00007B1DB31DB31DDB1DDB1DDB1DDB1D5C1E04
:065A1000E41EF31EF31E6C
:105A16000000000100000000000000050100000079
:105A26000506000000000000040B00000000000056
:105A3600090F000000000000010C08CE110A080B37
:105A460008FF00200021007F220003FFFF0100FF66
:105A56000003FF00FF7820202020616263646566F2
:105A66006768696A6B6C6D6E6F7071727374757648
:105A76007778797A3132333435363738393052459A
:105A860042545F2D3D5B5D5C233B27602C2E2F200F
:105A9600202015036697C63435F6F73133323600C3
:105AA60008101818100800003131295A1B750A050C
:105AB6000403020100060708090A0B11100F0E0D58
:105AC6000C121314151617FF1C1B1A19182A29284D
:105AD6002726252B2C2D2E2F3036353433323137D1
